:1000000002002E220000000000000000000000009E
:10002000000000000000000000000002014E758189
:100030006C1200A6E582600302009A780079007ACB
:10004000007B007C007D00EC4D601C88828983E48D
:1000500093A3A882A9838A828B83F0A3AA82AB830D
:100060001CBCFFE31D80E07582007583007C007D71
:1000700000EC4D600AE4F0A31CBCFFF51D80F27596
:1000800082007583007C007D00EC4D600AE4F0A3E3
:100090001CBCFFF51D80F21200031202C780FE0097
:1000A00000000002010E53D9BF75FF8075EF0643B3
:1000B000A90343B203759810758D30538EF4438EA7
:1000C00008858D8B53890F438920D28ED29943A600
:1000D0000343A41075E10175E24075C800438E101A
:1000E00075CA7875CBEC75CCFF75CDFFD2ADD2CA91
:1000F00075BF0F75C80043E40475CA7875CBEC75FD
:10010000CCFF75CDFF43E720D2CA75820022C0E044
:10011000C002C000C0D075D000C0BF75BF0FC2CF35
:1001200074DF256840177420C395682442F8A2A1A3
:10013000E433FAF6056875BF0FD0BF800875680014
:1001400075BF0FD0BFD0D0D000D002D0E032C0E019
:10015000C0D075D00075BF00C2CF0563E563249B96
:100160005003756300E565700AC3E5649563920703
:10017000B392A1E564700AC3E56595639207B392F3
:10018000A1E567700AC3E56695639207B392A1E59E
:1001900066700AC3E56795639207B392A1D0D0D089
:1001A000E032AA82AB83E4FCFDE508B40108E5096E
:1001B000700474018001E4FEEE7008EA2CFCEB3D53
:1001C000FD80F58C828D8322AA82AB83E4F56BF5EA
:1001D0006C8A068B07C3E5699EE56A64808FF063CD
:1001E000F08095F04055EE2442F88604EEC39AF56F
:1001F00008EF9BF509900002C002C003C004C006CE
:10020000C0071201A2858208858309D007D006D0D5
:10021000047D008C828D83C006C007120348AC8227
:10022000AD83D007D006D003D002EC256BF56BED83
:10023000356CF56C0EBE009D0F809A856B82856CC7
:100240008322AA82E4BA010104FB600E7401B50A9C
:1002500009D201D203C202C20422EB600DE50A708A
:1002600009C201D203D202C20422EA700E7401B59F
:100270000A09D201C203D202C20422EA700CE50AC2
:100280007008C201C203D202D20422AA82AB833018
:1002900003038A6422200304756400223004038A65
:1002A000652220040375650022AA82AB8330010316
:1002B0008A6622200104756600223002038A6722C2
:1002C000200203756700221200A6756800C200753F
:1002D000640075650075660075670030A1FDD2AFDA
:1002E000740CB5680280F9E562B401009200200048
:1002F0004875BF0F43E72075BF00740FB568FB85D5
:10030000518285520A1202427416B568FB75691D46
:10031000E4F56A9000161201C87B008B8312028BF1
:10032000741DB568FBE4F569F56A90001D1201C8FB
:100330007B008B831202A980A73000A475BF0F53E6
:10034000E7DF75BF000202E0E5828508F0A4C58200
:10035000C0F08509F0A4D0F025F0C5838508F0A48D
:100360002583F5832200000000000000000000004B
:00000001FF
