:1000000002002E7509002200000000000000000020
:100020000000000000000000000000020191758146
:100030004F120141E582600302009A780079007A4C
:10004000007B007C007D00EC4D601C88828983E48D
:1000500093A3A882A9838A828B83F0A3AA82AB830D
:100060001CBCFFE31D80E07582007583007C007D71
:1000700000EC4D600AE4F0A31CBCFFF51D80F27596
:1000800082007583007C007D00EC4D600AE4F0A3E3
:100090001CBCFFF51D80F21200031201A280FE1BA2
:1000A0005B324A005661726961626C6520667265F6
:1000B0007175656E63792067656E657261746F72C4
:1000C00020666F722074686520463338782E0D0ADA
:1000D000436865636B2070696E732050322E302048
:1000E000616E642050322E31207769746820746804
:1000F00065206F7363696C6C6F73636F70652E0D31
:100100000A004E6577206672657175656E63793D8C
:1001100000256C7500536F72727920256C7520482C
:100120007A206973206F7574206F662072616E6724
:10013000652E0A000A003C4E4F20464C4F41543E6B
:100140000053D9BF75FF8075EF0643A90343B2037F
:10015000759810758D30538EF4438E08858D8B53B2
:10016000890F438920D28ED29943A60343A41075E8
:10017000E10175E24075C800438E1075CAF475CB75
:10018000F975CCFF75CDFFD2ADD2CAD2AF75820062
:1001900022C0D075D000C2CFB2A0A2A0B392A1D08D
:1001A000D032749FC0E07400C0E07480C0E01203DD
:1001B0004A15811581158174A4C0E07400C0E074F3
:1001C00080C0E012034A1581158115817402C0E0D8
:1001D0007401C0E07480C0E012034A1581158115D6
:1001E00081740AC0E07400C0E07440C0E07411C0C3
:1001F000E07401C0E07480C0E01202AFE58124FA2F
:10020000F581E50A250AF510E50B33F511E50C3308
:10021000F512E50D33F513906C0075F0DC740212E5
:1002200002D0AA82AB83ACF0FDC374FF9A74FF9B2B
:10023000E49CE49D5020C00AC00BC00CC00D741596
:10024000C0E07401C0E07480C0E012034AE581247C
:10025000F9F5810201CCC2CAE4C39AFAE49BFB74AB
:10026000019CE49D8ACA8BCBD2CA7434C0E074016D
:10027000C0E07480C0E012034A1581158115810227
:1002800001CC120923AA82BA0810758220C002127A
:100290000936758208120936D0028A822285823395
:1002A00085833485F035850E3690028202057BC049
:1002B00008858108E50824FBF536E50824FBF88667
:1002C0003308863408863590028212057BD00822D6
:1002D000FB7A20E4FCFDFEFFE5822582F582E583C2
:1002E00033F583E5F033F5F0EB33FB4017DAE980C3
:1002F00042E5822582F582E58333F583E5F033F527
:10030000F0EB33FBEC33FCED33FDEE33FEEF33FF6C
:10031000EC9510ED9511EE9512EF95134013EC95B9
:1003200010FCED9511FDEE9512FEEF9513FF438243
:1003300001DABEEB2202093685823185833285F0EF
:1003400033850F349003350209D4C008858108E550
:100350000824FBF534E50824FBF8863108863208CA
:1003600086339003351209D4D00822852382852450
:1003700083120FF5858232E532600A052CE4B52C34
:1003800006052D8002D203853282227A007B00305E
:1003900003057840760022C002C00312036BAC82D2
:1003A000D003D002BC0002802DBC08028014BC091E
:1003B000028023BC0A02801EBC0D028019BC2021D1
:1003C0008014EA4B60D11ABAFF011B152C74FFB5DB
:1003D0002C02152D80C1EA4B60BDEA2440F876005E
:1003E00022EC7009EA2440F87600D20322ECB53101
:1003F00007EA2440F8760022C3EA940FEB940050F9
:10040000968A058B060ABA00010BED2440F8A60473
:10041000020397AA827B7FC3EA648094B040117480
:10042000B98AF063F08095F04006EA24D0FB803072
:10043000C3EA648094C1401174C68AF063F0809569
:10044000F0400674C92AFB8017C3EA648094E14037
:100450000F74E68AF063F08095F0400474A92AFBDB
:10046000C3EB952E50038B822275827F22AA827560
:100470002800752900752A00752B008A00E6FA60AD
:10048000148A82C000120413AB82D000C3EB952EF5
:1004900040030880E886038B82C000120413AA82FE
:1004A000D000C3E52E9A4050852E107511007512AC
:1004B00000751300852882852983852AF0E52BC0E5
:1004C00002C000120F87AB82AC83ADF0FED000D02B
:1004D000028B288C298D2A8E2BE4FBFCFDEA252833
:1004E000FAEB3529FBEC352AFCED352BFD8A288B00
:1004F000298C2A8D2B08809D852882852983852A31
:10050000F0E52B22AA82752800752900752A00754E
:100510002B008A00E6FB60228B82C003C00012041D
:1005200013AC82D000D003C3EC952E400DBB2D023E
:100530008008BB2B0280030880DA88028603BB2D6B
:1005400003D38001C39206BB2D028003BB2B010A9B
:100550008A8212046D300613C3E49528FAE49529C3
:10056000FBE4952AFCE4952BFD8008AA28AB29AC76
:100570002AAD2B8A828B838CF0ED228582238583A2
:1005800024E4F52CF52DF530C203AA33AB34AC3599
:100590008A828B838CF0120F6BFD74012AF533E491
:1005A0003BF5348C35EDFA700302091ABA25028046
:1005B000030208B3D202C200752E00752F00C204D8
:1005C000C205AB33AC34AD358B828C838DF0120F0A
:1005D0006BFAA3AB82AC838B338C348D358B828CDE
:1005E000838DF0120F6BF5318A06BE300040168AFB
:1005F00006EE24C6400FE52F75F00AA4FEEA24D0CB
:100600002EF52F80C38A06BE6100400A8A06EE24BA
:100610008540035302DFBA250280ADBA2A02804525
:10062000BA42028036BA43028040BA440302072E1F
:10063000BA490302072EBA4C028025BA4E030207BC
:1006400041BA4F03020733BA53028020BA5503025E
:10065000072CBA580302073A020769D2000205C8FC
:10066000D2010205C8D2040205C8D205200417E54C
:100670003624FDF88836860308860408860518188F
:100680008B258C268D27E52F700B3005047B018090
:10069000027BFF8B2F752E00C3E52E952F50051280
:1006A000036BAA82300307E52E7003020769EA6034
:1006B0001ABA2002800DBA09028008BA0D0280031E
:1006C000BA0A03300505E52FB52E1FE52E60C920B7
:1006D00004120530AB25AC26AD278B828C838DF0C0
:1006E000E4120FF7752E00020769BA081CE52E60A8
:1006F000A7200411AB25AC26AD271BBBFF011C8B2B
:10070000258C268D27152E808F20041BAB25AC262B
:10071000AD278B828C838DF0EA120FF70BBB0001A3
:100720000C8B258C268D27052E020698C202752E6D
:100730000A8036C202752E08802FC202752E1080E4
:1007400028E53624FDF888368603088604088605E1
:1007500018188B258C268D278B828C838DF0E52CA9
:10076000120FF7A3E52D120FF7E52E70030208B361
:1007700012038B7840E670030208B33004030208CA
:10078000B3E53624FDF88836860308860408860516
:1007900018188B258C268D27053020020302082C83
:1007A00030013585253785263885273975824012F1
:1007B0000504AE82AF83ABF0FC8537828538838534
:1007C00039F0EE120FF7A3EF120FF7A3EB120FF7AA
:1007D000A3EC120FF70208B33000268525378526D3
:1007E00038852739758240120504AE82AF83ABF09D
:1007F000FC8537828538838539F0EE120FF70208C1
:10080000B38525378526388527397582401205043A
:10081000AE82AF83ABF0FC8537828538838539F0B3
:10082000EE120FF7A3EF120FF70208B33001348571
:10083000253785263885273975824012046DAE82AA
:10084000AF83ABF0FC8537828538838539F0EE12B3
:100850000FF7A3EF120FF7A3EB120FF7A3EC120F92
:10086000F78050300025852537852638852739754E
:10087000824012046DAE82AF83ABF0FC8537828577
:1008800038838539F0EE120FF780288525378526C5
:100890003885273975824012046DAE82AF83ABF084
:1008A000FC8537828538838539F0EE120FF7A3EF88
:1008B000120FF720030302058AAB33AC34AD358B3E
:1008C000828C838DF0120F6BFEA3AB82AC838B33D3
:1008D0008C348D35EEFA700302058ABA25E18B82DD
:1008E0008C838DF0120F6BFABA6E028003BA4ECF72
:1008F000E53624FDF888368602088606088607183D
:10090000188A258E268F278A828E838FF0E52C12F7
:100910000FF7A3E52D120FF780A5AA307B008A827E
:100920008B832210980280FBAA998A82C002120946
:1009300036D0028A8222AA82BA0A0810990280FB63
:1009400075990D10990280FB8A9922AA82745CC065
:10095000E07409C0E0C023C0248A8222052AE4B5DD
:100960002A02052B22AA8274302AFA24C6500A745D
:10097000072AFA3007034302208A8202094BE582E4
:10098000FAC4540FF582C002120965D002740F5ADE
:10099000F582020965AA25AB26AC27AD28AE2975DC
:1009A0003020EE2EFEED235401FF4206EA2AFAEB38
:1009B00033FBEC33FCED33FDC3EE952C4008EEC366
:1009C000952CFE430201D530D98A258B268C278DA4
:1009D000288E2922858223858324E4F52AF52BAAF3
:1009E00031AB32AC338A828B838CF0120F6BFD7487
:1009F000012AF531E43BF5328C33EDFA7003020F36
:100A000064BA25028003020F5CC20BC20CC20DC285
:100A10000EC20FC210C211C212C208C209C20A75A8
:100A20002C00752D00752EFFAB31AC32AD338B82AF
:100A30008C838DF0120F6BFAA3AB82AC838B318C5D
:100A4000328D33BA25078A8212094B80928A06BEFC
:100A50003000402E8A06EE24C6402774FFB52E13C0
:100A6000E52D75F00AA4FEEA24D02EF52D70BFD234
:100A70000C80BBE52E75F00AA4FEEA24D02EF52EDC
:100A800080ACBA2E0A74FFB52EA4752E00809F8A02
:100A900006BE6100400E8A06EE248540075302DF41
:100AA000D2078002C207BA20028075BA2303020B64
:100AB0002FBA2A03020B34BA2B02805FBA2D0280B0
:100AC00055BA4202805FBA4303020B79BA4403026B
:100AD0000CB4BA4503020CCEBA4603020CCABA479C
:100AE00003020CD2BA4903020CB4BA4C02803BBADE
:100AF0004E03020CD6BA4F03020CBBBA5003020CD1
:100B00004DBA5303020B9DBA5503020CC0BA5803E9
:100B1000020CC5020D00D20B020A2ED20D020A2EC3
:100B2000D20E020A2ED210020A2ED211020A2ED2A0
:100B300012020A2E74FFB52E2030100BE53414F883
:100B40008834862D020A2EE53424FEF88834860681
:100B5000088607188E2D020A2E30100BE53414F883
:100B60008834862E020A2EE53424FEF88834860660
:100B7000088607188E2E020A2E30100AE53414F863
:100B800088348602800FE53424FEF8883486030812
:100B90008604188B028A8212094B020D05E5342463
:100BA000FDF88834860308860408860518188B2506
:100BB0008C268D278B828C838DF0121010AB82AC2B
:100BC000838B2F74FFB52E03852F2E200B1DC3E5BD
:100BD0002F952D5016E52DC3952FF52DAB2D152DE9
:100BE000EB600875822012094B80F18525828526ED
:100BF000838527F0120F6BFBFA6029AB2E152EC3ED
:100C0000E464808BF063F08095F050188A821209BA
:100C10004BAB25AC26AD270BBB00010C8B258C26DE
:100C20008D2780C7200B03020D05C3E52F952D40AE
:100C300003020D05E52DC3952FF52DAB2D152DEBDD
:100C40007003020D0575822012094B80EEE53424F5
:100C5000FDF88834860308860408860518188B2555
:100C60008C268D27E527FB30E7047A438013EB546D
:100C70006060047A50800AEB30E6047A4980027A98
:100C8000588A82C00212094B75823A12094B75824A
:100C90003012094B75827812094BD002BA49028092
:100CA0000BBA5002800685268212097E85258212A3
:100CB000097E8051D20F752C0A804A752C08804518
:100CC000752C0A8040752C10803BD2088037D209E1
:100CD0008033D20A802FE53424FDF8883486030857
:100CE000860408860518188B258C268D278B828C08
:100CF000838DF0E52A120FF7A3E52B120FF780057D
:100D00008A8212094B200806200903300A5AE5346A
:100D100024FCF888348603088604088605088606BD
:100D20001818188B258C268D278E28752536752644
:100D30000175278085253585263685273774012559
:100D400035FEE43536FFAB378E258F268B2785356C
:100D5000828536838537F0120F6BFBFA7003020928
:100D6000DF8A8212094B80CCE52C70030209DF7BFD
:100D70003F30102BE53414F88834E6FC3395E0FD61
:100D8000FEFF8C258D268E278F28200F5EAC257DBB
:100D9000007E007F008C258D268E278F28804C308A
:100DA000111FE53424FCF88834860408860508867B
:100DB000060886071818188C258D268E278F288000
:100DC0002AE53424FEF88834860408860518ED33B5
:100DD00095E0FEFF8C258D268E278F28200F0CACEA
:100DE00025AD267E007F008E278F28301243E52513
:100DF00045264527452860397408B52C0C75823086
:100E0000C00312094BD00380287410B52C237582BF
:100E100030C00312094BD00330070C758278C00331
:100E200012094BD003800A758258C00312094BD0B7
:100E300003300F25AC25AD26AE27E528FF30E71798
:100E4000C3E49CFCE49DFDE49EFEE49FFF8C258DA5
:100E5000268E278F288002C20F752F00D2138B0099
:100E6000752900C000120995D00020130DE529C492
:100E7000FCE6FD4CF61888038002A629052FB21364
:100E8000E52545264527452870D68803E52D7003BE
:100E9000752D01200C1A200B17E52F04FCC3952D8E
:100EA000500E758220C00312094BD003152D80E926
:100EB000300F0E75822DC00312094BD003152D8003
:100EC00024E52F6020300D0E75822BC00312094BD4
:100ED000D003152D800F300E0C758220C00312092F
:100EE0004BD003152D200B1EAC2D152DC3E52F9CCB
:100EF0005027300C047C3080027C208C82C003128E
:100F0000094BD00380E2C3E52F952D5009E52DC391
:100F1000952FF52D8003752D008B00AB2F152FEB32
:100F20006022B21320130A08E6C4540FFB8B2980F9
:100F3000078603740F5BF529852982C000120965B5
:100F4000D00080D7200B030209DFAB2D152DEB70ED
:100F5000030209DF75822012094B80EE8A82120992
:100F60004B0209DF852A82852B832220F71430F675
:100F7000148883A88220F507E6A88375830022E2FF
:100F800080F7E49322E022AAF0FBE5828510F0A42A
:100F9000FCADF0E5838510F0A42DFDE435F0FEE511
:100FA000828511F0A42DFDE5F03EFEE433FFEA85D5
:100FB00010F0A42EFEE5F03FFFE5838511F0A42E8E
:100FC000FEE5F03FFFE5828512F0A42EFEE5F03F3E
:100FD000FFEB8510F0A42FFFEA8511F0A42FFFE5A9
:100FE000838512F0A42FFFE5828513F0A42F8EF0E5
:100FF0008D838C8222E47320F71030F6118883A849
:101000008220F507F6A88375830022F280F7F0228C
:10101000AA82AB83ACF07D007E008A828B838CF049
:10102000120F6BFFA3AA82AB83EF60070DBD00EA2E
:101030000E80E78D828E83220000000000000000F9
:00000001FF
